:02000004080AE8
:1000000000000A088C1D0A08000006000600050111
:080010000402BD040000000021
:10001800B4190A0809480A4908B5884205D0094AA6
:10002800824202D0121A01F061FC0748074A0021F7
:10003800121A01F066FC064808BD00BF0003002044
:10004800E41C0A0880030020800300202C090020FB
:100058002C09002070B501F001FA074B074C1E4629
:10006800E41AA4080025A54204D056F8253098477C
:100078000135F8E770BD00BFA01C0A08D41C0A08A7
:1000880000F02AB808B500F071F8BDE8084001F0A2
:10009800A7B900F0BBBA00F0C1BA0078B0FA80F096
:1000A8004009704701230370704738B50468054656
:1000B8007CB16368013B63605BB9236820469B6839
:1000C8009847A368013BA3601BB923682046DB68F7
:1000D8009847284638BD000030B51B4B85B01888B6
:1000E800022101F00BFA194B194D1888194C0221FD
:1000F80001F004FA2888012101F000FA2088012182
:1001080001F0FCF92888012101F009FA2088002172
:1001180001F005FA104B0021188801F0EFF90F4B98
:100128000121188801F0EAF90D4B0E4A1B780E4997
:100138008DF8003002A83C2300F0ECFB03A8FFF781
:10014800B4FF05B030BD00BF140300200403002035
:1001580010030020080300208C0300200003002067
:1001680088030020C8190A08CC190A081FB53D4B96
:10017800188801F0EDF90446D0B93B493B4800F036
:1001880026FF3B4B384A1B783A498DF8003002A8C5
:100198003C2300F0BFFB03A8FFF787FF364B21463F
:1001A800188801F0BCF9354B0121188801F0B7F91E
:1001B8004FF4FA7000F052FA314B188801F0C8F980
:1001C8000446D0B92A4B2F4A1B782A498DF80030AB
:1001D80002A83C2300F09EFB03A8FFF766FF29490D
:1001E800224800F0F4FE244B0121188801F097F909
:1001F800224B2146188801F092F9234B188801F008
:10020800A7F9224B1860224B1B689842214B1CBF50
:1002180001221A701B7813B31E4B00210128197094
:100228001B4A134C1C4B09D11060188801F077F950
:1002380023781A4A8DF800303C2309E011601888A9
:10024800012101F06CF92378154A8DF800303C2320
:1002580002A8144900F05EFB03A8FFF726FF04B0CC
:1002680010BD00BF14030020C8190A08900300201D
:1002780088030020CC190A08080300201003002076
:1002880004030020D5190A088C03002084030020E9
:10029800A00300200C03002000030020DB190A083B
:1002A800F0190A08E4190A0810B5084B084C01228D
:1002B8001A7000F02DF80749204600F075FE204618
:1002C800BDE81040044A054901F0B0B98803002090
:1002D80090030020C8190A0880030020230F0A0889
:1002E80008B5024B1B681B6B019308BDD0010608BB
:1002F80008B5024B1B685B68019308BD9C010608A2
:1003080008B5024B1B685B69019308BD9C01060890
:1003180008B5024B1B681B68019308BDB0010608AD
:1003280008B5024B1B689B68019308BDB00106081D
:1003380008B5024B1B68DB68019308BDB0010608CD
:1003480008B5024B1B681B69019308BDB00106087C
:1003580008B5024B1B685B69019308BDB00106082C
:1003680008B5024B1B681B6E019308BDAC0106085B
:1003780008B5024B1B685B6E019308BDAC0106080B
:1003880008B5024B1B689B6E019308BDAC010608BB
:1003980008B5024B1B68DB6E019308BDAC0106086B
:1003A80008B5024B1B681B6F019308BDAC0106081A
:1003B80008B5024B1B685B6F019308BDAC010608CA
:1003C80008B5034B1B68D3F88030019308BD0000C3
:1003D800AC01060808B5024B1B68DB69019308BD30
:1003E800B401060808B5024B1B681B6A019308BDD7
:1003F800B401060808B5024B1B689B69019308BD48
:10040800C401060808B5024B1B685B6A019308BD66
:10041800C401060808B5024B1B689B6A019308BD16
:10042800C401060808B5024B1B68DB6A019308BDC6
:10043800C401060808B5024B1B681B6B019308BD75
:10044800C401060808B5024B1B685B6B019308BD25
:10045800C401060808B5024B1B689B6B019308BDD5
:10046800C401060808B5024B1B681B6C019308BD44
:10047800C401060808B5024B1B681B68019308BD38
:10048800D801060808B5024B1B681B69019308BD13
:10049800D801060808B5024B1B685B69019308BDC3
:1004A800D801060808B5024B1B689B69019308BD73
:1004B800D801060808B5024B1B68DB69019308BD23
:1004C800D801060808B5024B1B681B6A019308BDD2
:1004D800D801060808B5024B1B689B6C019308BD40
:1004E800C001060808B5024B1B685B68019308BD8C
:1004F800A401060808B5024B1B685B69019308BD97
:10050800A401060808B5024B1B68DB6C019308BD03
:10051800A401060808B5024B1B685B6D019308BD72
:10052800A401060808B5034B1B68D3F89030019363
:1005380008BD0000A401060808B5034B1B68D3F8E2
:100548009C30019308BD0000A401060808B5024BC1
:100558001B681B6A019308BDCC01060808B5024B4D
:100568001B68DB6B019308BDCC01060808B5024B7C
:100578001B685B68019308BDC801060808B5024BF3
:100588001B689B68019308BDC801060808B5024BA3
:100598001B68DB68019308BDC801060808B5024B53
:1005A8001B681B69019308BDC801060808B5024B02
:1005B8001B685B69019308BDC801060808B5024BB2
:1005C8001B689B69019308BDC801060808B5024B62
:1005D8001B68DB69019308BDC801060808B5024B12
:1005E8001B681B6A019308BDC801060808B5024BC1
:1005F8001B681B6B019308BDC801060808B5024BB0
:100608001B685B6B019308BDC801060808B5024B5F
:100618001B681B68019308BDA001060808B5024BBA
:100628001B685B68019308BDA001060808B5024B6A
:100638001B689B68019308BDA001060808B5024B1A
:100648001B68DB6A019308BDA001060808B5024BC8
:100658001B681B6B019308BDA00106080021FFF76A
:1006680049BF10B5836804460BB900F0E6FFC368BC
:100678009847A3681BB10322214620469847204685
:10068800BDE81040102100F0D6BF70470020704729
:1006980010B50446102100F0CEFF204610BD08B565
:1006A80008B1FFF7F5FF08BD10B58368044613B11C
:1006B800032201469847204610BD38B5C468ECB1FE
:1006C8002378022B02D1E068FFF7A8FF656835B1EF
:1006D8002846FFF7E9FF1021284600F0ACFFA5687F
:1006E80035B12846FFF7E0FF1021284600F0A3FFA8
:1006F8002046BDE83840142100F09DBF38BD13B531
:10070800044691E8050000234B600B60206062609E
:1007180001A801930093FFF7C8FC204602B010BD62
:100728000B68036013B15A6801325A607047F7B515
:100738000C4606460F4654F8043B02AD45F8083D02
:10074800214601A8FFF7ECFF29463046FFF7D7FFFF
:1007580001A8FFF7AAFC2046FFF7A7FC38460821A6
:1007680000F069FF304603B0F0BD13B50B460446F0
:1007780003C88DE8030093E8030084E803009DE8BC
:10078800030083E8030002B010BD826810B50AB9FF
:1007980000F053FFC368BDE81040184708B500686B
:1007A80000F11001FFF7F1FF08BD826810B50AB922
:1007B80000F043FFC368BDE81040184708B500685B
:1007C80000F11001FFF7F1FF08BD38B50023836081
:1007D8008B6804460D462BB102229847EB68E3600C
:1007E800AB68A360204638BD2DE9F0414FF69C73F5
:1007F80004684FF0020086B0B1F904208B80002312
:100808000F688DF800300B60D4E84F1F994203D170
:10081800C4E8450F002DF7D102D08DF800106CE028
:1008280014F10C051CBFE7602282BFF35F8F18BF6D
:100838001F4601236370BFF35F8F04F10803002094
:1008480053E8006F43E80002002AF9D1BFF35F8F35
:10085800002E52D0FFF756FE20B129463046FFF74A
:1008680094FF43E031466846FFF7AFFFE068B4F90C
:10087800105008B101F076F804901020ADF814502B
:10088800FFF707FC054630B34FF00008C0F80880B2
:100898001820FFF7FEFB0446C0B1C0F808800146E7
:1008A8006846FFF762FF029BA268A360039B02925F
:1008B800E268E360BDF814300392A3824FF69C739C
:1008C800ADF81430049BCDF8108023610E4B2C60DA
:1008D800EB600E4BAB600498FFF7A0FE6846FFF78D
:1008E800E3FE002229460A48FFF714FE3046FFF7C8
:1008F800DBFE1021304600F09EFE3846FFF78EFEE4
:1009080006B0BDE8F08100BFA5070A08050A0A0875
:100918006B060A082DE9F04F8BB007AD4FF0000BBE
:100928000646994614200C230F4690469DF850A081
:10093800C5F804B0C5F808B00793FFF7AAFB04464A
:1009480038B180F800B080F801B0C0F804B0C0F841
:1009580008B00023102003940493FFF79AFB28B1F2
:10096800012343608360234BC4600360224B0490DF
:1009780008200893FFF78DFB044628B1039B04A9C0
:1009880040F8043BFFF7CCFE00955FFA8AF34A462D
:10099800414638460994FFF7D9FDB8B9039B5B78FF
:1009A80003F0FF0293B94FF69C7305A903A80592BB
:1009B800ADF81830FFF718FF0598FFF72FFE05A8C8
:1009C8000999FFF7B4FE06A8FFF76FFB039B04A97C
:1009D80006A80593FFF7A4FE05A93046FFF78FFE8A
:1009E80006A8FFF762FB04A8FFF75FFB30460BB0D1
:1009F800BDE8F08F041A0A08710B0A08022AF8B534
:100A0800044606D0032A17D0012A21D10B680360B7
:100A18001EE018200E68FFF73CFB054650B1314632
:100A2800FFF7D3FE3069B6F9147008B100F09AFFE9
:100A38002861AF8225600BE004684CB12069FFF79C
:100A4800EDFD2046FFF730FE1821204600F0F3FDAB
:100A58000020F8BD38B5002383608B6804460D4636
:100A68002BB102229847EB68E360AB68A36020468D
:100A780038BD022A70B5044606D0032A11D0012ACF
:100A880018D10B68036015E014200E68FFF701FB0E
:100A9800054620B13146FFF7DDFF337C2B74256016
:100AA80008E0046834B12046FFF7FEFD1421204613
:100AB80000F0C1FD002070BDF0B50C46BFF35F8F9C
:100AC80087B0002350E8006F40E80032002AF9D1CF
:100AD800BFF35F8F002E3FD01846FFF713FD074680
:100AE80020B121463046FFF760FE2EE0314601A8CE
:100AF800FFF7B0FF237810208DF81430FFF7C9FAFC
:100B08000546D0B187601420FFF7C3FA044678B1D0
:100B18008760014601A8FFF728FE039BA268A3602F
:100B2800049B0392E268E3609DF8143004922374F6
:100B38000A4B2C60EB600A4BAB6001A8FFF7B4FDD1
:100B4800002229460748FFF7E5FC3046FFF7ACFDD1
:100B58001021304600F06FFD07B0F0BDC5070A0848
:100B68007B0A0A086B060A0830B5044685B00D46AC
:100B780068461146FFF7DBFD7CB124B228460DB16B
:100B880000F0F0FE029002A96846ADF80C40FFF7AD
:100B98002BFE0298FFF742FD1DE04FF0010200987E
:100BA8008DF80840D0E84F3FA34203D1C0E8412F59
:100BB8000029F7D102D08DF808300CE010F10C01B3
:100BC8004FF0010318BF0373BFF35F8F043000F8C1
:100BD800033CFFF771FF01A8FFF767FA05B030BDC6
:100BE8007047F8B5064615460C468F18BC4206D025
:100BF800336814F8011B9B6830469847F6E7284687
:100C0800F8BD0022007CFFF7ABBB0021007CFFF79A
:100C1800AFBB0021007CFFF7B3BB0021007CFFF7CE
:100C2800B7BB0021007CFFF7BBBB10B504461421FD
:100C380000F001FD204610BD10B5044608464FF4EB
:100C48007A73A360044B0021207461602360FFF76E
:100C5800B7FB204610BD00BF201A0A080021007CFF
:100C6800FFF7A6BB704710B50446182100F0E3FC57
:100C7800204610BDF8B50F4600F10806051D0024F2
:100C880016F8011D0A22384600F011F9AE42044454
:100C980007D0002CF4D02E21384600F0DBF80444AD
:100CA800EEE72046F8BD000010B50446044B1122BB
:100CB80040F8043B002100F024FE204610BD00BF90
:100CC800481A0A080346074A10B543F8042B01F1ED
:100CD800100251F8044B914243F8044BF9D10A78B9
:100CE8001A7010BD481A0A08024A416002600422BC
:100CF80002757047481A0A0810B59DF8084044EA7A
:100D0800032343EA024242EA016104234160037576
:100D180010BD000037B5044D05609DF818500095CA
:100D2800FFF7EAFF03B030BD481A0A08014A024B30
:100D38001A6070470D1B0A08A403002000231A46F6
:100D48004068FFF713BC002202214068FFF71EBC71
:100D5800002211464068FFF711BC00221146406886
:100D6800FFF71CBC00231A4619464068FFF71EBC53
:100D780000231A4619464068FFF720BC002281F07C
:100D880001014068FFF722BC00224068FFF72EBC33
:100D9800002211464068FFF731BC00221146406826
:100DA800FFF71CBC70B516468EB0044608A8FFF7BE
:100DB8007BFF1122002103A800F0A3FD304600F0BC
:100DC800ECFD00250A4B009581B25B6803AA30460A
:100DD800FFF780FB20B129462046FFF785FF03E097
:100DE80003A92046FFF76EFF20460EB070BD00BF76
:100DF80028080020024B034A1A6000225A607047F4
:100E0800A8030020401B0A08F8B506460D468F18AF
:100E18000024BD420CD0336815F8011B9B6830468E
:100E28009847002801DB0444F3E7002C08BF044678
:100E38002046F8BD70B505460C46084649B100F095
:100E4800ACFD2B68024621462846BDE87040DB68A9
:100E5800184770BD03689B681847012A98BF0A2283
:100E680030B50B468BB000218DF824100DF123040A
:100E7800B3FBF2F505FB1233DBB2092B94BF303319
:100E88003733DBB2214604F801392B46002DEFD168
:100E9800FFF7D0FF0BB030BD10B422B90368C9B258
:100EA8009B6810BC1847D2B210BCFFF7D6BFFFF73B
:100EB800F3BF10B50446FFF7F7FB204610BD00004E
:100EC800034800238360034A034900F0AFBB00BF17
:100ED800B003002080030020BB0E0A08704710B53D
:100EE8000446102100F0A7FB204610BD70B504464B
:100EF8000E46074B0025036040F80C5FFFF7F0F93A
:100F080030462671FFF766FAA560204670BD00BF1F
:100F1800741B0A080079FFF765BA10B50446006823
:100F2800FFF77CFB204610BD10B50446006808B1E9
:100F3800FFF774FB00232360A360636010BD38B51E
:100F480004460D4600680131FFF770FB10B184E8D4
:100F58002100012038BD10B50368044613B1436869
:100F68008B4207D22046FFF7EAFF20B1A3680BB9EE
:100F780022681370012010BD70B50E461146044654
:100F88001546FFF7E8FF18B92046FFF7CDFF09E03F
:100F98002A463146A560206800F0A8FC2268A368AC
:100FA8000021D154204670BD38B5002304460360A3
:100FB8004360836003730D4639B1084600F0EDFCC9
:100FC800294602462046FFF7D7FF204638BD38B5E8
:100FD80005460C4641B1084600F0DFFC21460246B2
:100FE8002846FFF7C9FF01E0FFF79EFF284638BDF6
:100FF8004FF6FF72034B0020187058809A80FFF755
:1010080071BA00BFC0030020024B1A68024B1A6075
:10101800704700BF18030020C803002070474174C0
:10102800704708B5007CFFF71DFA20EAE07008BD9C
:1010380008B5007CFFF7EEF920EAE07008BD08B5B6
:10104800007CFFF7F7F930EA200028BF4FF0FF30A7
:1010580008BD08B5007CFFF7E5F930EA200028BF95
:101068004FF0FF3008BD007CFFF7ECB910B504461F
:10107800142100F0E0FA204610BD70B5457C044606
:101088000E4625B9007CFFF7EDF9002805DD31464D
:10109800207CBDE87040FFF7B5B9284670BD000058
:1010A80010B5044608461146002262604FF47A7271
:1010B800A260054A20742260012262741A46FFF772
:1010C80099F9204610BD00BFB01B0A08007CFFF745
:1010D800C1B9000038B50C4D296811F0010411D1CF
:1010E8002846FEF7DAFF68B1084A2146084B094846
:1010F800FFF7D6FF2846FEF7D5FF074A07490548F8
:1011080000F094FA034838BD640400206804002005
:10111800E0030020CC0300208003002025100A08EB
:1011280041747047704708B50021007CFFF7BAF991
:1011380030EA200028BF4FF0FF3008BD08B5012174
:10114800007CFFF7AFF930EA200028BF4FF0FF30EE
:1011580008BD08B5007CFFF79DF920EAE07008BDDE
:1011680008B5007CFFF78EF920EAE07008BD007C26
:10117800FFF7A8B910B50446142100F05CFA204620
:1011880010BD38B50446007C0D46FFF783F90028EA
:1011980001DC607C28B12946207CFFF78BF920EA26
:1011A800E07038BD10B50446002363604FF47A73CD
:1011B800A360054B0846236001232174637411461C
:1011C800FFF758F9204610BDE01B0A0810B5044681
:1011D8001422002100F095FB054B20466360054B67
:1011E800E36040F2011323818123238210BD00BFF5
:1011F80071050020F004002030B50E4D87B001A81D
:10120800FFF7E4FF296811F0010410D12846FEF722
:1012180044FF60B101AA21460748FFF7C3FF2846EB
:10122800FEF740FF054A0649034800F0FFF9024867
:1012380007B030BDEC0400207406002080030020B5
:101248002D110A0810B504461422002100F059FB9C
:10125800054B20466360054BE36040F20113238190
:101268008123238210BD00BF240700208C060020A4
:1012780010B50E4C86B001A8FFF7E4FF2368DB0722
:1012880010D42046FEF709FF60B101AA01210848E1
:10129800FFF788FF2046FEF705FF064A064904487F
:1012A80000F0C4F9024806B010BD00BF880600204F
:1012B80010070020800300202D110A080022114683
:1012C8004068FFF76BB9F0B5164689B011220F4692
:1012D8000446002103A800F014FB304600F05DFB33
:1012E8000025009581B27B6803AA3046FFF7F2F823
:1012F80020B129462046FFF7F7FC03E003A9204662
:10130800FFF7E0FC204609B0F0BD00221146406816
:10131800FFF764B9002211464068FFF76FB9002251
:101328004068FFF763B9002281F001014068FFF7C8
:101338004DB900231A4619464068FFF73FB9002304
:101348001A4619464068FFF731B90022114640682D
:10135800FFF714B9002202214068FFF717B90023EC
:101368001A464068FFF702B9024B04225A60024A43
:101378001A60704728080020101C0A0808B5144B8A
:1013880033B1FFF739FF03681B699847002816DC5B
:10139800104B33B1FFF79EFE03681B69984700287E
:1013A80010DC0D4B0BB1AFF300800C4B7BB1FFF79A
:1013B8005FFF03681B699847002806DC08BDAFF388
:1013C8000080E5E7AFF30080EBE7AFF3008008BDEE
:1013D8000000000000000000000000000000000005
:1013E80008B5FFF7CBFFFEF78BFF014B186008BD70
:1013F800380800200248034A0349121A00F076BA56
:101408000040024004400240E01C0A0807B50023DF
:1014180000931A466FF07701FFF78EF803B05DF876
:1014280004FB000007B543880A2B08D0502B09D1CC
:10143800094B1B683BB103B05DF804EB1847FFF795
:10144800E5FF06E0002300931A466FF07701FFF7E7
:1014580073F803B05DF804FB3008002038B5104C71
:10146800104D2368AB42104B0CBF012200221A70AA
:1014780002D0FFF7BFFF2560FEF73AFF044600F0F1
:1014880049FA0A4B13B12046AFF300800021074800
:10149800FFF764F8BDE8384000210548FFF742B877
:1014A800004002401E1C279A34080020000000005B
:1014B8002D140A0810B504460F48FFF72BFD28B174
:1014C800A4F10D03022B01D8002010BD00F054F840
:1014D800FFF7C4FB08B1012CF6D9FFF7FBFDFFF7B6
:1014E800F5FD18B1A4F11203012BEDD9172C8CBF0F
:1014F8000020012010BD00BF6C080020172838B557
:1015080004460D460AD8FF2908D0FFF7D3FF28B1B3
:1015180029462046BDE83840FEF702BF38BD38B539
:1015280004460D46FEF704FFFF2810D0062804D80D
:101538004D2323FA00F0C30709D42046FFF7BAFF6A
:1015480028B129462046BDE83840FEF7F9BE38BD27
:1015580010B50446FEF7ECFE0438C0B2012808D9DD
:101568002046FFF7A7FF20B12046BDE81040FEF750
:10157800EFBE002010BD000038B50B4D296811F0F2
:1015880001040FD12846FEF788FD58B121460748C7
:10159800FFF752FB2846FEF785FD054A0549034833
:1015A80000F044F8014838BD3C08002040080020FD
:1015B80080030020E90B0A0813B5084C00231A46DB
:1015C800194600932046FFF7A5FB2046044A054923
:1015D80002B0BDE8104000F029B800BF5408002050
:1015E800800300206D0C0A0870B50C4C0C4E0D4D94
:1015F80000212046FFF77AFC20460B4C324629464C
:1016080000F014F801212046FFF770FC3246294605
:101618002046BDE8704000F009B800BF6C08002003
:1016280080030020E50E0A087C0800200B460146CE
:10163800184600F04DB9FEF72EBD08B5FEF7FEFFBF
:10164800244B1A68D0075CBF01221A60224B1A6823
:10165800D1075CBF01221A60204B1A68D2075CBF11
:1016680001221A601E4B1A68D0075CBF01221A605B
:101678001C4B1A68D1075CBF01221A601A4B1A6802
:10168800D2075CBF01221A60184B1A68D0075CBFEA
:1016980001221A60164B1A68D1075CBF01221A6032
:1016A800144B1A68D2075CBF01221A60124B1A68E1
:1016B800D0075CBF01221A60104B1A68D1075CBFC3
:1016C80001221A600E4B1A68D2075CBF01221A6009
:1016D800704700BFB8080020B4080020B0080020F8
:1016E800AC080020A8080020A4080020A0080020BA
:1016F8009C080020980800209408002090080020EA
:101708008C080020184B1A68D1075CBF01221A60A8
:10171800164B1A68D2075CBF01221A60144B1A686C
:10172800D0075CBF01221A60124B1A68D1075CBF50
:1017380001221A60104B1A68D2075CBF01221A6096
:101748000E4B1A68D0075CBF01221A600C4B1A684E
:10175800D1075CBF01221A600A4B1A68D2075CBF26
:1017680001221A60704700BFD8080020D408002062
:10177800D0080020CC080020C8080020C408002099
:10178800C0080020BC080020184B1A68D1075CBFAD
:1017980001221A60164B1A68D2075CBF01221A6030
:1017A800144B1A68D0075CBF01221A60124B1A68E2
:1017B800D1075CBF01221A60104B1A68D2075CBFC0
:1017C80001221A600E4B1A68D0075CBF01221A600A
:1017D8000C4B1A68D1075CBF01221A600A4B1A68C1
:1017E800D2075CBF01221A60704700BFF8080020CA
:1017F800F4080020F0080020EC080020E808002089
:10180800E4080020E0080020DC080020244B1A68C7
:10181800D0075CBF01221A60224B1A68D1075CBF4F
:1018280001221A60204B1A68D2075CBF01221A6095
:101838001E4B1A68D0075CBF01221A601C4B1A683D
:10184800D1075CBF01221A601A4B1A68D2075CBF25
:1018580001221A60184B1A68D0075CBF01221A606F
:10186800164B1A68D1075CBF01221A60144B1A681C
:10187800D2075CBF01221A60124B1A68D0075CBFFE
:1018880001221A60104B1A68D1075CBF01221A6046
:101898000E4B1A68D2075CBF01221A60704700BF5E
:1018A8002809002024090020200900201C09002004
:1018B8001809002014090020100900200C09002034
:1018C800080900200409002000090020FC08002065
:1018D80010B5054C13462CB10A4601460220AFF359
:1018E800008010BD204610BD0000000010B5431E4A
:1018F8000A44914204D011F8014B03F8014FF8E76C
:1019080010BD03460244934202D003F8011BFAE7D4
:101918007047000038B5124B05461C68A36BD3B955
:101928001820FEF773FE43F20E33A06303804AF6D5
:10193800CD33438041F2342383804EF26D63C380FC
:101948004DF6EC630381052343810B238381012238
:101958000023C0E90423A36B00221D615A6138BD2E
:101968007C030020024B0146186800F003B800BF52
:101978007C03002070B5064608460C4600F00DF8BA
:10198800451C29463046FEF761FE064618B12A4630
:101998002146FFF7ABFF304670BD034613F8012B15
:1019A800002AFBD1181A0138704700001D000A08E8
:1019B8005D000A0889000A088D000A080000000076
:1019C800726564004C6564436F6C6F720067726582
:1019D800656E004D61737465724F6E004D6173746E
:1019E8006572506F776572004D61737465724F66EA
:1019F80066000000000000000000000093060A08CE
:101A080099060A08C3060A08A7060A0895060A08D6
:101A18000000000000000000E90B0A08330C0A0867
:101A28000B0C0A08EB0B0A08130C0A081B0C0A0813
:101A3800230C0A082B0C0A08000000000000000014
:101A48007D0C0A086D0C0A086F0C0A086C6E00669B
:101A58006E00636F64650064657461696C000D0AEB
:101A680000253031307520005D20002564002C20D1
:101A78000028293A2000205B00636F6465203D2020
:101A88000025690064657461696C73203D200062FB
:101A98006175640053657269616C00555342536502
:101AA8007269616C31007479706500706172616D82
:101AB80000636D6400696400686E64007374726D1D
:101AC8000066696C74006C766C0061646448616ED1
:101AD800646C65720072656D6F766548616E646CE2
:101AE800657200656E756D48616E646C6572730031
:101AF8004A534F4E53747265616D4C6F6748616EFF
:101B0800646C657200617070006E6F6E650074724F
:101B180061636500696E666F007761726E00657259
:101B2800726F720070616E696300616C6C00000016
:101B38000000000000000000450D0A084F0D0A08CB
:101B4800590D0A08630D0A086D0D0A08790D0A086F
:101B5800850D0A08910D0A08990D0A08A30D0A08AF
:101B6800AD0D0A080000000000000000E50E0A089C
:101B7800E70E0A085A00252B3033643A25303275AF
:101B88000025592D256D2D25645425483A254D3AB3
:101B98002553257A0061736374696D650000000040
:101BA800000000000000000025100A0875100A084F
:101BB80083100A08110E0A0839100A085B100A086F
:101BC80047100A086F100A0827100A082B100A087D
:101BD80000000000000000002D110A087D110A080D
:101BE8008B110A08110E0A0869110A082F110A0830
:101BF80045110A0877110A085B110A0829110A0811
:101C0800000000000000000067130A085D130A08BE
:101C180053130A08C5120A0847130A083B130A088F
:101C28002F130A0827130A081D130A0813130A0892
:101C3800CF120A08000000000000000000000000A9
:101C4800000000000000000000000000000000008C
:101C5800000000000000000000000000000000007C
:101C6800000000000000000000000000000000006C
:101C7800000000000000000000000000000000005C
:101C8800000000000000000000000000000000004C
:101C98000000000043000000B1020A08350D0A08E0
:101CA800FD0D0A08C90E0A08F90F0A0811100A08DA
:101CB80071130A08C1150A08F1150A0849160A0815
:101CC8000D170A0891170A0815180A0800000000DD
:081CD800000000000000000004
:041CE0000000000000
:101CE40001000000060000000500000001000000E3
:101CF40004000000020000009D1B0A080000000010
:101D04003C1C0A085C1C0A087C1C0A080000000031
:101D14000000000000000000000000009C1C0A08F5
:101D240000000000000000000000000000000000AF
:101D3400000000000000000000000000000000009F
:101D4400000000000000000000000000000000008F
:101D54000000000000000000000000001C03002040
:101D6400FFFFFFFF00000102030405060708090A3C
:101D74000B0C0D0E0F101112131415161718191A37
:081D84001B1C1D1E1F2028007E
:041D8C00785634123F
:04000005080A0018CD
:00000001FF
