:02000004080AE8
:1000000000000A08781E0A08000006000600050124
:0800100004027E05000000005F
:04001800A41A0A0814
:10001C0009480A4908B5884205D0094A824202D0EB
:10002C00121A01F0CFFC0748074A0021121A01F0FE
:10003C00D4FC064808BD00BF00000020D41D0A08EF
:10004C007C0000207C0000203806002038060020B0
:10005C0070B501F06FFA074B074C1E46E41AA40862
:10006C000025A54204D056F8253098470135F8E70D
:10007C0070BD00BF9C1D0A08D01D0A0800F014B802
:10008C0008B500F061F8BDE8084001F015BA00F0C1
:10009C00DFBA00F0E5BA0078B0FA80F0400970479A
:1000AC00012303707047000070B5164B164E18886C
:1000BC00164D022101F08EFA154C3088012101F009
:1000CC0089FA2888012101F085FA2088012101F0A4
:1000DC0081FA3088002101F08EFA2888002101F085
:1000EC008AFA2088002101F086FA0A4B0021188830
:1000FC0001F070FABDE87040074B0121188801F03F
:10010C0069BA00BF0C00002010000020080000207D
:10011C0004000020980000200000002038B504687E
:10012C0005467CB16368013B63605BB9236820467C
:10013C009B689847A368013BA3601BB923682046C2
:10014C00DB689847284638BD2DE9F043474B85B00E
:10015C00188801F069FA8146002842D14449454883
:10016C0000F0A0FFDFF840810446434F434E444D5E
:10017C00D0B198F80030434A43498DF8003002A8BA
:10018C003C2300F005FC03A8FFF7C8FF3D493948A4
:10019C0000F077FF0121388801F02DFA0121308819
:1001AC0001F029FA494619E03149324800F069FF5B
:1001BC0098F800302E4A35498DF8003002A83C23BF
:1001CC0000F0E6FB03A8FFF7A9FF2146388801F0F1
:1001DC0012FA2146308801F00EFA0121288801F02C
:1001EC000AFA4FF4FA7000F05BFA294B294C188884
:1001FC0001F01AFA284B20601A681D46904203D071
:10020C002649274800F03DFF2449254800F04AFFC5
:10021C0040B32368234922482B6000F032FF226848
:10022C001D4E012A204C214B0AD118880021326026
:10023C0001F0E1F923781E4A8DF800303C230AE0E6
:10024C00002218880121326001F0D5F92378194A6F
:10025C008DF800303C2302A8174900F099FB03A845
:10026C00FFF75CFF05B0BDE8F08300BF0C00002079
:10027C00B81A0A089C00002010000020040000207E
:10028C0008000020BC1A0A08BF1A0A08C51A0A0876
:10029C009800002090000020AC000020CC1A0A0826
:1002AC0080000020D11A0A089400002000000020D1
:1002BC00D71A0A08EC1A0A08E01A0A0870B50E4B8D
:1002CC000E4C01221A700E4E00F03CF80D4D0E49EA
:1002DC00204600F0C3FE20460C4C3246294601F065
:1002EC0011FA0B49204600F0B9FE32462946204649
:1002FC00BDE8704001F006BA940000209C0000207C
:10030C007C000020DB0F0A08B81A0A0880000020C5
:10031C00CC1A0A0808B5024B1B681B6B019308BD6D
:10032C00D001060808B5024B1B685B68019308BD39
:10033C009C01060808B5024B1B685B69019308BD5C
:10034C009C01060808B5024B1B681B68019308BD8D
:10035C00B001060808B5024B1B689B68019308BDE9
:10036C00B001060808B5024B1B68DB68019308BD99
:10037C00B001060808B5024B1B681B69019308BD48
:10038C00B001060808B5024B1B685B69019308BDF8
:10039C00B001060808B5024B1B681B6E019308BD23
:1003AC00AC01060808B5024B1B685B6E019308BDD7
:1003BC00AC01060808B5024B1B689B6E019308BD87
:1003CC00AC01060808B5024B1B68DB6E019308BD37
:1003DC00AC01060808B5024B1B681B6F019308BDE6
:1003EC00AC01060808B5024B1B685B6F019308BD96
:1003FC00AC01060808B5034B1B68D3F88030019399
:10040C0008BD0000AC01060808B5024B1B68DB698F
:10041C00019308BDB401060808B5024B1B681B6AA2
:10042C00019308BDB401060808B5024B1B689B6913
:10043C00019308BDC401060808B5024B1B685B6A32
:10044C00019308BDC401060808B5024B1B689B6AE2
:10045C00019308BDC401060808B5024B1B68DB6A92
:10046C00019308BDC401060808B5024B1B681B6B41
:10047C00019308BDC401060808B5024B1B685B6BF1
:10048C00019308BDC401060808B5024B1B689B6BA1
:10049C00019308BDC401060808B5024B1B681B6C10
:1004AC00019308BDC401060808B5024B1B681B6804
:1004BC00019308BDD801060808B5024B1B681B69DF
:1004CC00019308BDD801060808B5024B1B685B698F
:1004DC00019308BDD801060808B5024B1B689B693F
:1004EC00019308BDD801060808B5024B1B68DB69EF
:1004FC00019308BDD801060808B5024B1B681B6A9E
:10050C00019308BDD801060808B5024B1B689B6C0B
:10051C00019308BDC001060808B5024B1B685B6857
:10052C00019308BDA401060808B5024B1B685B6962
:10053C00019308BDA401060808B5024B1B68DB6CCF
:10054C00019308BDA401060808B5024B1B685B6D3E
:10055C00019308BDA401060808B5034B1B68D3F82A
:10056C009030019308BD0000A401060808B5034BA8
:10057C001B68D3F89C30019308BD0000A401060849
:10058C0008B5024B1B685B69019308BDCC010608DA
:10059C0008B5024B1B681B6A019308BDCC01060809
:1005AC0008B5024B1B68DB6B019308BDCC01060838
:1005BC0008B5024B1B685B68019308BDC8010608AF
:1005CC0008B5024B1B689B68019308BDC80106085F
:1005DC0008B5024B1B68DB68019308BDC80106080F
:1005EC0008B5024B1B681B69019308BDC8010608BE
:1005FC0008B5024B1B685B69019308BDC80106086E
:10060C0008B5024B1B689B69019308BDC80106081D
:10061C0008B5024B1B68DB69019308BDC8010608CD
:10062C0008B5024B1B681B6A019308BDC80106087C
:10063C0008B5024B1B681B6B019308BDC80106086B
:10064C0008B5024B1B685B6B019308BDC80106081B
:10065C0008B5024B1B681B68019308BDA001060876
:10066C0008B5024B1B685B68019308BDA001060826
:10067C0008B5024B1B689B68019308BDA0010608D6
:10068C0008B5024B1B68DB6A019308BDA001060884
:10069C0008B5024B1B681B6B019308BDA001060833
:1006AC000021FFF741BF10B5836804460BB901F078
:1006BC0030F8C3689847A3681BB103222146204633
:1006CC0098472046BDE81040102101F020B8704733
:1006DC000020704710B50446102101F018F8204690
:1006EC0010BD08B508B1FFF7F5FF08BD10B583685C
:1006FC00044613B1032201469847204610BD002240
:10070C0002604FF69C72828010B5B1F9044084806F
:10071C008A8002680C6804600A6010BD10B504463B
:10072C000068FFF79DFF204610BD38B5C468F4B1D2
:10073C002378022B03D104F10C00FFF7EFFF65685F
:10074C0035B12846FFF7D2FF1021284600F0DFFF15
:10075C00A56835B12846FFF7C9FF1021284600F0DF
:10076C00D6FF2046BDE83840142100F0D0BF38BD7C
:10077C0013B5044691E8050000234B600B60206024
:10078C00626001A801930093FFF7C8FC204602B0F9
:10079C0010BD0B68036013B15A6801325A60704780
:1007AC00F7B50C4606460F4654F8043B02AD45F827
:1007BC00083D214601A8FFF7ECFF29463046FFF71C
:1007CC00D7FF01A8FFF7AAFC2046FFF7A7FC384685
:1007DC00082100F09CFF304603B0F0BD13B50B466A
:1007EC00044603C88DE8030093E8030084E8030083
:1007FC009DE8030083E8030002B010BD38B5002368
:10080C000446036010200D46FFF741FC28B101237C
:10081C0043608360024BC56003602060204638BD96
:10082C00001B0A08826810B50AB900F072FFC36891
:10083C00BDE81040184708B5006800F11001FFF73B
:10084C00F1FF08BD826810B50AB900F062FFC368F9
:10085C00BDE81040184708B5006800F11001FFF71B
:10086C00F1FF08BD38B5002383608B6804460D4644
:10087C002BB102229847EB68E360AB68A36020467B
:10088C0038BD0000F0B589B004686846FFF737FF43
:10089C004FF0020200238DF80830D4E84F3F002BB4
:1008AC0003D1C4E8412F0029F7D102D08DF80830CC
:1008BC0063E014F10C0503D069462846FFF71FFFCF
:1008CC00BFF35F8F01236370BFF35F8F04F10803E5
:1008DC00002053E8006F43E80002002AF9D1BFF36F
:1008EC005F8F002E49D0FFF727FE20B129463046F6
:1008FC00FFF798FF3AE0314602A8FFF7B3FFE06834
:10090C00B4F9105008B101F0A3F806901020ADF81E
:10091C001C50FFF7BCFB0546E8B100278760182088
:10092C00FFF7B5FB044688B10146876002A8FFF7C4
:10093C0055FF049BA268A360059B0492E26806A97C
:10094C00E36004F110000592FFF7D9FE0D4B2C600B
:10095C00EB600D4BAB6006A8FFF7E0FE02A8FFF7BB
:10096C00C5FE002229460948FFF7EEFD3046FFF789
:10097C00BDFE1021304600F0CAFE6846FFF7CEFEE1
:10098C0009B0F0BD43080A08B90A0A08B3060A08F8
:10099C002DE9F04F8BB006460F46904699469DF8D0
:1009AC0050A0FFF7EDFD07AD834630BB4FF62E731D
:1009BC00059005A92846ADF81830FFF7A0FE1420C5
:1009CC00FFF765FB044658B1022303700123437003
:1009DC00C0F804B0C0F808B029460C30FFF78FFE01
:1009EC003046214640F8044BFFF708FF2846FFF736
:1009FC0095FE05A8FFF792FE52E000240C2314206C
:100A0C006C60AC600793FFF742FB014618B10470B1
:100A1C0044704460846004A80391FFF7EFFE224BFE
:100A2C0008200893FFF733FB044628B1039B04A965
:100A3C0040F8043BFFF7ADFE00955FFA8AF34A4697
:100A4C00414638460994FFF7A3FD20B9039B5B7818
:100A5C0003F0FF0283B1039B04A906A80593FFF7DB
:100A6C0098FE05A93046FFF783FE06A8FFF756FB54
:100A7C0004A8FFF753FB13E04FF69C7305A903A8DA
:100A8C000592ADF81830FFF7FDFE05A8FFF746FEFE
:100A9C0005A80999FFF784FE06A8FFF73FFBDAE7E4
:100AAC0030460BB0BDE8F08F290C0A08022AF8B5C5
:100ABC00044606D0032A17D0012A22D10B68036002
:100ACC001FE018200E68FFF7E2FA054650B13146D8
:100ADC00FFF7C8FE3069B6F9147008B100F0B8FF22
:100AEC002861AF8225600CE0046854B104F1100059
:100AFC00FFF714FE2046FFF7F9FD1821204600F001
:100B0C0006FE0020F8BD38B5002383608B680446D0
:100B1C000D462BB102229847EB68E360AB68A360EB
:100B2C00204638BD022A70B5044606D0032A11D0DF
:100B3C00012A18D10B68036015E014200E68FFF72A
:100B4C00A6FA054620B13146FFF7DDFF337C2B7446
:100B5C00256008E0046834B12046FFF7C7FD142176
:100B6C00204600F0D4FD002070BD0000F0B50C460E
:100B7C00BFF35F8F87B0002350E8006F40E800326E
:100B8C00002AF9D1BFF35F8F002E3FD01846FFF734
:100B9C00D3FC074620B121463046FFF753FE2EE02A
:100BAC00314601A8FFF7AFFF237810208DF81430E1
:100BBC00FFF76DFA0546D0B187601420FFF767FA8E
:100BCC00044678B18760014601A8FFF707FE039B36
:100BDC00A268A360049B0392E268E3609DF8143062
:100BEC00049223740A4B2C60EB600A4BAB6001A897
:100BFC00FFF77CFD002229460748FFF7A5FC30468D
:100C0C00FFF774FD1021304600F081FD07B0F0BDF8
:100C1C0063080A08310B0A08B3060A0830B5044603
:100C2C0085B00D4668461146FFF7BAFD7CB124B27B
:100C3C0028460DB100F00CFF029002A96846ADF8F1
:100C4C000C40FFF71FFE02A8FFF768FD1DE04FF0F8
:100C5C00010200988DF80840D0E84F3FA34203D121
:100C6C00C0E8412F0029F7D102D08DF808300CE0F4
:100C7C0010F10C014FF0010318BF0373BFF35F8F2A
:100C8C00043000F8033CFFF771FF01A8FFF746FAA8
:100C9C0005B030BD7047F8B5064615460C468F18A2
:100CAC00BC4206D0336814F8011B9B683046984749
:100CBC00F6E72846F8BD0022007CFFF76BBB00214D
:100CCC00007CFFF76FBB0021007CFFF773BB00219A
:100CDC00007CFFF777BB0021007CFFF77BBB10B5D6
:100CEC000446142100F013FD204610BD10B5044637
:100CFC0008464FF47A73A360044B002120746160A2
:100D0C002360FFF777FB204610BD00BF1C1B0A08B1
:100D1C000021007CFFF766BB704710B50446182114
:100D2C0000F0F5FC204610BDF8B50F4600F10806A2
:100D3C00051D002416F8011D0A22384600F011F991
:100D4C00AE42044407D0002CF4D02E21384600F0DB
:100D5C00DBF80444EEE72046F8BD000010B504466D
:100D6C00044B112240F8043B002100F036FE2046D3
:100D7C0010BD00BF441B0A080346074A10B543F8D0
:100D8C00042B01F1100251F8044B914243F8044B2F
:100D9C00F9D10A781A7010BD441B0A08024A416046
:100DAC000260042202757047441B0A0810B59DF8B6
:100DBC00084044EA032343EA024242EA0161042365
:100DCC004160037510BD000037B5044D05609DF8FA
:100DDC0018500095FFF7EAFF03B030BD441B0A081A
:100DEC00014A024B1A607047C61B0A08B00000206B
:100DFC0000231A464068FFF7DBBB00220221406843
:100E0C00FFF7E6BB002211464068FFF7D9BB002272
:100E1C0011464068FFF7E4BB00231A4619464068A8
:100E2C00FFF7E6BB00231A4619464068FFF7E8BBFC
:100E3C00002281F001014068FFF7EABB0022406804
:100E4C00FFF7F6BB002211464068FFF7F9BB002202
:100E5C0011464068FFF7E4BB70B516468EB00446E9
:100E6C0008A8FFF77BFF1122002103A800F0B5FDB5
:100E7C00304600F008FE00250A4B009581B25B68F5
:100E8C0003AA3046FFF740FB20B129462046FFF766
:100E9C0085FF03E003A92046FFF76EFF20460EB046
:100EAC0070BD00BF34050020024B034A1A600022BB
:100EBC005A607047B40000203C1C0A08F8B506467E
:100ECC000D468F180024BD420CD0336815F8011B59
:100EDC009B6830469847002801DB0444F3E7002C5C
:100EEC0008BF04462046F8BD70B505460C460846BA
:100EFC0049B100F0C8FD2B68024621462846BDE8E2
:100F0C007040DB68184770BD03689B681847012A5E
:100F1C0098BF0A2230B50B468BB000218DF82410F7
:100F2C000DF12304B3FBF2F505FB1233DBB2092BF5
:100F3C0094BF30333733DBB2214604F801392B46EA
:100F4C00002DEFD1FFF7D0FF0BB030BD10B422B99C
:100F5C000368C9B29B6810BC1847D2B210BCFFF72B
:100F6C00D6BFFFF7F3BF10B50446FFF7BFFB204613
:100F7C0010BD0000034800238360034A034900F0BE
:100F8C00C1BB00BFBC0000207C000020730F0A080E
:100F9C00704710B50446102100F0B9FB204610BD77
:100FAC0070B504460E46074B0025036040F80C5FF5
:100FBC00FFF7B0F930462671FFF726FAA5602046F8
:100FCC0070BD00BF701C0A080079FFF725BA10B578
:100FDC0004460068FFF744FB204610BD10B50446DC
:100FEC00006808B1FFF73CFB00232360A36063603B
:100FFC0010BD38B504460D4600680131FFF738FBCB
:10100C0010B184E82100012038BD10B503680446F6
:10101C0013B143688B4207D22046FFF7EAFF20B199
:10102C00A3680BB922681370012010BD70B50E4671
:10103C00114604461546FFF7E8FF18B92046FFF79E
:10104C00CDFF09E02A463146A560206800F0BAFCC5
:10105C002268A3680021D154204670BD38B5002306
:10106C00044603604360836003730D4639B1084640
:10107C0000F009FD294602462046FFF7D7FF20461F
:10108C0038BD38B505460C4641B1084600F0FBFCAE
:10109C00214602462846FFF7C9FF01E0FFF79EFFF5
:1010AC00284638BD08B582680B4612B919B901201B
:1010BC0008BD11B90368187802E0006800F0BEFCA6
:1010CC00B0FA80F0400908BD4FF6FF72034B0020C8
:1010DC00187058809A80FFF71FBA00BFCC00002010
:1010EC00024B1A68024B1A60704700BF14000020B4
:1010FC00D400002070474174704708B5007CFFF79E
:10110C00CBF920EAE07008BD08B5007CFFF79CF92C
:10111C0020EAE07008BD08B5007CFFF7A5F930EABD
:10112C00200028BF4FF0FF3008BD08B5007CFFF74A
:10113C0093F930EA200028BF4FF0FF3008BD007C47
:10114C00FFF79AB910B50446142100F0E0FA2046D6
:10115C0010BD70B5457C04460E4625B9007CFFF7E2
:10116C009BF9002805DD3146207CBDE87040FFF777
:10117C0063B9284670BD000010B5044608461146F8
:10118C00002262604FF47A72A260054A20742260D9
:10119C00012262741A46FFF747F9204610BD00BFC2
:1011AC00AC1C0A08007CFFF76FB9000038B50C4D79
:1011BC00296811F0010411D12846FEF76CFF68B1C3
:1011CC00084A2146084B0948FFF7D6FF2846FEF788
:1011DC0067FF074A0749054800F094FA034838BDF1
:1011EC007001002074010020EC000020D8000020C9
:1011FC007C00002001110A0841747047704708B543
:10120C000021007CFFF768F930EA200028BF4FF07E
:10121C00FF3008BD08B50121007CFFF75DF930EA0D
:10122C00200028BF4FF0FF3008BD08B5007CFFF749
:10123C004BF920EAE07008BD08B5007CFFF73CF9DB
:10124C0020EAE07008BD007CFFF756B910B50446E3
:10125C00142100F05CFA204610BD38B50446007C21
:10126C000D46FFF731F9002801DC607C28B12946D6
:10127C00207CFFF739F920EAE07038BD10B5044640
:10128C00002363604FF47A73A360054B0846236018
:10129C000123217463741146FFF706F9204610BD33
:1012AC00DC1C0A0810B504461422002100F095FB42
:1012BC00054B20466360054BE36040F2011323812C
:1012CC008123238210BD00BF7D020020FC01002081
:1012DC0030B50E4D87B001A8FFF7E4FF296811F077
:1012EC00010410D12846FEF7D6FE60B101AA2146B2
:1012FC000748FFF7C3FF2846FEF7D2FE054A06490A
:10130C00034800F0FFF9024807B030BDF801002097
:10131C00800300207C00002009120A0810B5044646
:10132C001422002100F059FB054B20466360054B4D
:10133C00E36040F2011323818123238210BD00BF9F
:10134C00300400209803002010B50E4C86B001A884
:10135C00FFF7E4FF2368DB0710D42046FEF79BFE63
:10136C0060B101AA01210848FFF788FF2046FEF76B
:10137C0097FE064A0649044800F0C4F9024806B034
:10138C0010BD00BF940300201C0400207C00002032
:10139C0009120A08002211464068FFF721B9F0B57E
:1013AC00164689B011220F460446002103A800F00E
:1013BC0014FB304600F067FB0025009581B27B687A
:1013CC0003AA3046FFF7A0F820B129462046FFF7C4
:1013DC00E5FC03E003A92046FFF7CEFC204609B04C
:1013EC00F0BD002211464068FFF71AB900221146E1
:1013FC004068FFF725B900224068FFF719B90022B1
:10140C0081F001014068FFF703B900231A46194621
:10141C004068FFF7F5B800231A4619464068FFF7F5
:10142C00E7B8002211464068FFF7CAB80022022133
:10143C004068FFF7CDB800231A464068FFF7B8B8EC
:10144C00024B04225A60024A1A607047340500208D
:10145C000C1D0A0808B5144B33B1FFF739FF0368AC
:10146C001B699847002816DC104B33B1FFF79EFE22
:10147C0003681B699847002810DC0D4B0BB1AFF3C8
:10148C0000800C4B7BB1FFF75FFF03681B6998472B
:10149C00002806DC08BDAFF30080E5E7AFF3008061
:1014AC00EBE7AFF3008008BD000000000000000077
:1014BC00000000000000000008B5FFF7CBFFFEF7AE
:1014CC0039FF014B186008BD440500200248034A4F
:1014DC000349121A00F076BA004002400440024060
:1014EC00D01D0A0807B5002300931A466FF0770148
:1014FC00FFF73CF803B05DF804FB000007B5438828
:10150C000A2B08D0502B09D1094B1B683BB103B0F7
:10151C005DF804EB1847FFF7E5FF06E000230093A6
:10152C001A466FF07701FFF721F803B05DF804FB62
:10153C003C05002038B5104C104D2368AB42104BC5
:10154C000CBF012200221A7002D0FFF7BFFF2560EA
:10155C00FEF7E8FE044600F049FA0A4B13B12046A8
:10156C00AFF3008000210748FFF71AF8BDE83840B8
:10157C0000210548FEF7F0BF004002401E1C279AD0
:10158C00400500200000000009150A0810B50446AB
:10159C000F48FFF719FD28B1A4F10D03022B01D858
:1015AC00002010BD00F054F8FFF7B2FB08B1012C7D
:1015BC00F6D9FFF7FBFDFFF7F5FD18B1A4F1120307
:1015CC00012BEDD9172C8CBF0020012010BD00BFC2
:1015DC0078050020172838B504460D460AD8FF298F
:1015EC0008D0FFF7D3FF28B129462046BDE8384084
:1015FC00FEF7B0BE38BD38B504460D46FEF7B2FE58
:10160C00FF2810D0062804D84D2323FA00F0C30776
:10161C0009D42046FFF7BAFF28B129462046BDE879
:10162C003840FEF7A7BE38BD10B50446FEF79AFE4B
:10163C000438C0B2012808D92046FFF7A7FF20B113
:10164C002046BDE81040FEF79DBE002010BD0000F6
:10165C0038B50B4D296811F001040FD12846FEF75F
:10166C001AFD58B121460748FFF740FB2846FEF704
:10167C0017FD054A0549034800F044F8014838BDF8
:10168C00480500204C0500207C000020A10C0A0815
:10169C0013B5084C00231A46194600932046FFF751
:1016AC0093FB2046044A054902B0BDE8104000F007
:1016BC0029B800BF600500207C000020250D0A0819
:1016CC0070B50C4C0C4E0D4D00212046FFF768FCFC
:1016DC0020460B4C3246294600F014F801212046D6
:1016EC00FFF75EFC324629462046BDE8704000F00C
:1016FC0009B800BF780500207C0000209D0F0A0867
:10170C00880500200B460146184600F04DB9FEF73F
:10171C00C0BC08B5FEF7B4FF244B1A68D0075CBFF9
:10172C0001221A60224B1A68D1075CBF01221A6091
:10173C00204B1A68D2075CBF01221A601E4B1A6834
:10174C00D0075CBF01221A601C4B1A68D1075CBF22
:10175C0001221A601A4B1A68D2075CBF01221A6068
:10176C00184B1A68D0075CBF01221A60164B1A6816
:10177C00D1075CBF01221A60144B1A68D2075CBFF8
:10178C0001221A60124B1A68D0075CBF01221A6042
:10179C00104B1A68D1075CBF01221A600E4B1A68F5
:1017AC00D2075CBF01221A60704700BFC40500203D
:1017BC00C0050020BC050020B8050020B4050020A1
:1017CC00B0050020AC050020A8050020A4050020D1
:1017DC00A00500209C05002098050020184B1A68D5
:1017EC00D1075CBF01221A60164B1A68D2075CBF86
:1017FC0001221A60144B1A68D0075CBF01221A60D0
:10180C00124B1A68D1075CBF01221A60104B1A6880
:10181C00D2075CBF01221A600E4B1A68D0075CBF5E
:10182C0001221A600C4B1A68D1075CBF01221A60A6
:10183C000A4B1A68D2075CBF01221A60704700BFBE
:10184C00E4050020E0050020DC050020D805002080
:10185C00D4050020D0050020CC050020C8050020B0
:10186C00184B1A68D1075CBF01221A60164B1A6814
:10187C00D2075CBF01221A60144B1A68D0075CBFF8
:10188C0001221A60124B1A68D1075CBF01221A6040
:10189C00104B1A68D2075CBF01221A600E4B1A68F3
:1018AC00D0075CBF01221A600C4B1A68D1075CBFD1
:1018BC0001221A600A4B1A68D2075CBF01221A6017
:1018CC00704700BF0406002000060020FC05002025
:1018DC00F8050020F4050020F0050020EC050020A0
:1018EC00E8050020244B1A68D0075CBF01221A605F
:1018FC00224B1A68D1075CBF01221A60204B1A6870
:10190C00D2075CBF01221A601E4B1A68D0075CBF5D
:10191C0001221A601C4B1A68D1075CBF01221A60A5
:10192C001A4B1A68D2075CBF01221A60184B1A684E
:10193C00D0075CBF01221A60164B1A68D1075CBF36
:10194C0001221A60144B1A68D2075CBF01221A607C
:10195C00124B1A68D0075CBF01221A60104B1A6830
:10196C00D1075CBF01221A600E4B1A68D2075CBF0C
:10197C0001221A60704700BF340600203006002098
:10198C002C0600202806002024060020200600201B
:10199C001C0600201806002014060020100600204B
:1019AC000C0600200806002010B5054C13462CB17F
:1019BC000A4601460220AFF3008010BD204610BD40
:1019CC000000000010B5431E0A44914204D011F8E7
:1019DC00014B03F8014FF8E710BD03460244934254
:1019EC0002D003F8011BFAE77047000038B5124B20
:1019FC0005461C68A36BD3B91820FEF729FE43F2E9
:101A0C000E33A06303804AF6CD33438041F2342376
:101A1C0083804EF26D63C3804DF6EC630381052326
:101A2C0043810B23838101220023C0E90423A36B90
:101A3C0000221D615A6138BD7800002010F8012B7E
:101A4C0011F8013B012A28BF9A42F7D0D01A7047EF
:101A5C00024B0146186800F003B800BF7800002064
:101A6C0070B5064608460C4600F00DF8451C294694
:101A7C003046FEF70DFE064618B12A462146FFF702
:101A8C00A1FF304670BD034613F8012B002AFBD191
:101A9C00181A0138704700001D000A085D000A087A
:101AAC0089000A088D000A08000000006F666600B5
:101ABC006F6E004C65644F6E004C65644F6666003B
:101ACC00747275650066616C7365004D6173746545
:101ADC00724F6E004D6173746572506F7765720052
:101AEC004D61737465724F66660000000000000063
:101AFC0000000000DB060A08E1060A0837070A089E
:101B0C00EF060A08DD060A080000000000000000CD
:101B1C00A10C0A08EB0C0A08C30C0A08A30C0A084F
:101B2C00CB0C0A08D30C0A08DB0C0A08E30C0A08D5
:101B3C000000000000000000350D0A08250D0A0801
:101B4C00270D0A08626175640053657269616C0047
:101B5C0055534253657269616C310074797065003C
:101B6C00706172616D00636D6400696400686E641D
:101B7C00007374726D0066696C74006C766C006135
:101B8C00646448616E646C65720072656D6F766535
:101B9C0048616E646C657200656E756D48616E644B
:101BAC006C657273004A534F4E53747265616D4C81
:101BBC006F6748616E646C657200617070002530EF
:101BCC0031307520005D20002564002C2000282970
:101BDC003A2000205B00636F6465203D200025697E
:101BEC000064657461696C73203D20000D0A006C03
:101BFC006E00666E00636F64650064657461696C89
:101C0C00006E6F6E6500747261636500696E666F5D
:101C1C00007761726E006572726F720070616E692E
:101C2C006300616C6C00000000000000000000000C
:101C3C00FD0D0A08070E0A08110E0A081B0E0A08E9
:101C4C00250E0A08310E0A083D0E0A08490E0A082C
:101C5C00510E0A085B0E0A08650E0A080000000007
:101C6C00000000009D0F0A089F0F0A085A00252B40
:101C7C003033643A253032750025592D256D2D25CC
:101C8C00645425483A254D3A2553257A00617363EF
:101C9C0074696D6500000000000000000000000089
:101CAC0001110A0851110A085F110A08C90E0A0825
:101CBC0015110A0837110A0823110A084B110A08D2
:101CCC0003110A0807110A080000000000000000B8
:101CDC0009120A0859120A0867120A08C90E0A08DA
:101CEC0045120A080B120A0821120A0853120A0894
:101CFC0037120A0805120A08000000000000000054
:101D0C0043140A0839140A082F140A08A1130A08E4
:101D1C0023140A0817140A080B140A0803140A08D7
:101D2C00F9130A08EF130A08AB130A0800000000A5
:101D3C000000000000000000000000000000000097
:101D4C000000000000000000000000000000000087
:101D5C000000000000000000000000000000000077
:101D6C000000000000000000000000000000000067
:101D7C000000000000000000000000000000000057
:101D8C000000000000000000000000004300000004
:101D9C00C9020A08ED0D0A08B50E0A08810F0A08D7
:101DAC00D5100A08ED100A084D140A089D160A08E9
:101DBC00CD160A0825170A08E9170A086D180A082B
:041DCC00F1180A08F8
:041DD000000000000F
:101DD40001000000050000000400000002000000F3
:101DE40007000000991C0A0800000000381D0A08BA
:101DF400581D0A08781D0A080000000000000000B1
:101E04000000000000000000981D0A080000000007
:101E140000000000000000000000000000000000BE
:101E240000000000000000000000000000000000AE
:101E3400000000000000000000000000000000009E
:0C1E44000000000000000000180000205A
:101E5000FFFFFFFF00000102030405060708090A4F
:101E60000B0C0D0E0F101112131415161718191A4A
:081E70001B1C1D1E1F20280091
:041E78007856341252
:04000005080A001CC9
:00000001FF
